:10021C002091FDD2993099FDC2998F993099FDC2E8
:02022C00992215
:10022E00EBFDEAFCE9F8D299EDFBECFAE8F91201E4
:03023E00E2601764
:100241003099FDC299EDFBECFAE8F91201E2F5995A
:0D02510008E870E10C80DE3099FDC29922B2
:10028E00D2A0D2A1C2A2750F01750A19C294D29240
:10029E00C293C290759850758921758BF4758DF443
:1002AE00D28ED2ACE58E44FDF58EE58F4401F58FEE
:0402BE00D2AFD200E9
:0602C20020020302052BDF
:1002C800C202E50F24FFB41100400302052BFA23F4
:1002D8002A9002DD7302031302032302033302038D
:1002E800430203530203690203900205190205231E
:1002F8000203A00203CF0203FE02042D02048F02B0
:0B03080004BC0204E902045C02052BA7
:0A031300E51CB42102800302052B53
:10031D00750F0202052BE51CB40D02800302052B9F
:10032D00750A1A02052BE51CB40D02800302052B7C
:10033D00750A1B02052BE51CB40D02800302052B6B
:10034D00750A1C02052BE51CB42402800302052B43
:10035D00E4F508750901750F0602052BE51CB40DB2
:10036D0006750F0702052BAA08AB090509E50970EB
:10037D00020508EB2400F582EA3400F583E51CF054
:10038D0002052B751C0DE51C700302052B750A1D4E
:08039D0002052BE51CB4BF1F93
:1003A500AA08AB090509E50970020508EB2400F563
:0F03B50082EA3400F583E51CF0750F0B02052B6F
:1003C400E4F508F509750F0A02052BE51CB4131FA3
:1003D400AA08AB090509E50970020508EB2400F534
:0F03E40082EA3400F583E51CF0750F0C02052B3F
:1003F300E4F508F509750F0A02052BE51CB4971FF0
:10040300AA08AB090509E50970020508EB2400F504
:0F04130082EA3400F583E51CF0750F0D02052B0E
:10042200E4F508F509750F0A02052BE51CB4741FE3
:10043200AA08AB090509E50970020508EB2400F5D5
:0F04420082EA3400F583E51CF0750F1102052BDB
:10045100E4F508F509750F0A02052BAA08AB090591
:1004610009E50970020508EB2400F582EA3400F57C
:1004710083E51CF0E508B40102800302052BE509C0
:10048100B4DA02800302052B750F0E02052BE51C61
:03049100B4401E56
:10049400AA08AB090509E50970020508EB2400F573
:0E04A40082EA3400F583E51CF0750F0F8079B5
:0F04B200E4F508F509750F0A806FE51CB4401ECC
:1004C100AA08AB090509E50970020508EB2400F546
:0E04D10082EA3400F583E51CF0750F10804CB4
:0F04DF00E4F508F509750F0A8042E51CB44021C9
:1004EE00AA08AB090509E50970020508EB2400F519
:1004FE0082EA3400F583E51CF0750F1285100A8030
:01050E001CD0
:0F050F00E4F508F509750F0A8012E51CB40D0D0F
:0A051E00750A288008E51CB40D03DF
:10052800750A29E50A24E7B41D004003020B12FAF4
:10053800232A90053E73020B120205980205AA02AF
:1005480005C20205D4020771020782020793020757
:10055800A40207B50207C602080902087B0208ECD4
:100568000209770209890209BE0209ED020B12028B
:100578000B12020B12020B12020A63020B12020B7D
:1005880012020A57020A4B020A41020A390202C23F
:100598007B057A02795E12022E750F03750A19021D
:1005A80002C27B057A02796412022E758BFE758D64
:1005B800FE750F04750A190202C27B057A02796D6D
:1005C80012022E750F05750A190202C2E4F508F524
:1005D80009F513F514F515F516F518F519F51AF5C5
:1005E8001BF511751201E511B40005E512B40900F7
:0205F80050565B
:1005FA00E5122400F582E5113400F583E024D0F5F4
:10060A000CB40901D34006E50C24F9F50CAC13AD82
:10061A0014AE15AF1675F0041200038C138D148EE8
:10062A00158F16C013C014C015C016E4FEFCFDAF2A
:10063A000C1201728C138D148E158F160512E51289
:10064A0070A20511809EE4F51175120BE511B40034
:08065A0005E512B4130050562F
:10066200E5122400F582E5113400F583E024D0F58B
:100672000CB40901D34006E50C24F9F50CAC18AD15
:1006820019AE1AAF1B75F0041200038C188D198E67
:100692001A8F1BC018C019C01AC01BE4FEFCFDAFA4
:1006A2000C1201728C188D198E1A8F1B0512E5120D
:1006B20070A20511809EC013C014C015C016E4FCC0
:1006C200FD7402FEE4FF1200268C138D148E158F2A
:1006D20016C013C014C015C016E4FCFD04FE74DA83
:1006E200FF12008F8C138D148E158F16C018C0192F
:1006F200C01AC01BE4FCFD7402FEE4FF1200268C4B
:10070200188D198E1A8F1BC018C019C01AC01BE48D
:10071200FCFD04FE74DAFF1201908C188D198E1AFA
:100722008F1BC018C019C01AC01BE4FEFCFD746404
:10073200FF120026C004C005C006C007AC13AD14EA
:10074200AE15AF1612008F8F17E5184519451A45D9
:030752001B601316
:10075500E4F508F509D2A2C292D293750F0A751075
:030765001E8003F0
:10076800750F12750A190202C275101FE4F508F513
:1007780009750F0A750A190202C2751020E4F508F6
:10078800F509750F0A750A190202C2751021E4F5F8
:1007980008F509750F0A750A190202C2751022E4D4
:1007A800F508F509750F0A750A190202C2751023B2
:1007B800E4F508F509750F0A750A190202C29001D5
:1007C800D9E07921F79001D8E07922F79001D7E0B4
:1007D8007923F79001D6E07924F79001D5E07925BF
:1007E800F79001D4E07926F79001D7E0F50D900154
:1007F800D6E0F50ED292C29375102A750A24020229
:10080800C27F4D12021C7F4412021C7F2012021C60
:100818007F3212021C7F3012021C75F00A7926E71B
:10082800842430FF12021C75F00AE784E5F02430B6
:10083800FF12021C75F00A7925E7842430FF1202A2
:100848001C75F00AE784E5F02430FF12021C75F0ED
:100858000A7924E7842430FF12021C75F00AE78421
:10086800E5F02430FF12021C7F0D12021C750A25C8
:100878000202C27F4312021C0F12021C7F201202C6
:100888001C7F3212021C7F3012021C75F00A792676
:10089800E7842430FF12021C75F00AE784E5F0248F
:1008A80030FF12021C75F00A7925E7842430FF1204
:1008B800021C75F00AE784E5F02430FF12021C756B
:1008C800F00A7924E7842430FF12021C75F00AE745
:1008D80084E5F02430FF12021C7F0D12021C750AF9
:1008E800260202C27F4F12021C7F4612021C7F2082
:1008F80012021C7F3012021C7F4112021C7F3E1222
:10090800021C75F00A7923E7842430FF12021C7553
:10091800F00AE784E5F02430FF12021C75F00A792A
:1009280022E7842430FF12021C75F00AE784E5F000
:100938002430FF12021C75F00A7921E7842430FF65
:1009480012021C75F00AE784E5F02430FF12021C3D
:100958007F2E12021C7F6512021C7F7612021C7FFA
:100968007412021C7F0D12021C750A270202C27B38
:10097800057A02797112022E750F08750A1902029A
:10098800C2E4F511F512E511B40105E512B4D4007D
:10099800501BE5122400F582E5113400F583E0FFD1
:1009A80012021C0512E51270DD051180D9750F09B8
:0609B800750A190202C2DB
:1009BE00E51B151B700EE51A151A7008E5191519A9
:1009CE00700215187B057A02797C12022EC292D221
:1009DE0093E4F508F509750F0A750A190202C2E5C6
:0909EE00184519451A451B603635
:1009F700C018C019C01AC01BE4FEFCFD7464FF12C6
:100A07000026C004C005C006C007AC13AD14AE1560
:100A1700AF1612008F8F1775F019E51784F5172495
:060A270032F50A020B1279
:100A2D00D2A0D2A1D2A2750A190202C2B2A0750A31
:100A3D002F0202C2D2A0B2A1750A2F0202C2D2A009
:100A4D00D2A1B2A2750A2F0202C2B2A0B2A1B2A265
:100A5D00750A2F0202C2D292C2939001D6E0650EA2
:020A6D006041E6
:100A6F009001D9E07921F79001D8E07922F7900130
:100A7F00D7E07923F79001D6E07924F79001D5E0FC
:100A8F007925F79001D4E07926F77B057A027982F0
:100A9F0012022E7B057A02798812022E750A2480A3
:100AAF00569001D6E0B50E409001D7E0650D603845
:100ABF009001D9E07921F79001D8E07922F79001E0
:100ACF00D7E07923F79001D6E07924F79001D5E0AC
:100ADF007925F79001D4E07926F77B057A027982A0
:080AEF0012022E750A26800F89
:100AF7007B057A02797112022E750F08750A199013
:0E0B070001D7E0F50D9001D6E0F50E0202C216
:050B1500C0D03098077C
:0A0B1A00C29885991CD202D0D03297
:03002300020B15B8
:10025E00464D20530D00425220303034300D004DAB
:10026E00530D00574620303E303144340D00464683
:10027E0020300D00434620300D004344205C0D001D
:0300000002020DEC
:0F020D00758127E478FFF6D8FD75A0FF02028EF9
:1001E200EB30E11320E00EC083C08289828A83E073
:1001F200D082D08322E3226405700EC083C082893C
:0B020200828A8393D082D08322E722FF
:10002600E58124FEF9EFF887F0A4FFE7C5F0CEFAE4
:10003600A42EFE500205F0E7C5F0CDFBA42DFD5021
:100046000205F0E7C5F0CCA42CFC19E7601C88F08B
:10005600A42EFEE5F03DFD50010C87F0EAA42DFD2F
:10006600E5F03CFC87F0EBA42CFC19E7600F88F068
:10007600A42DFDE5F03CFC87F0EAA42CFC19E76012
:090086000588F0A42CFC0201C461
:10008F00E58124FEF9C2D1EC7060ED4E7076EFB4CD
:10009F001000402C7B007A20C3E733F719E733F7C2
:1000AF0019E733F719E733F7090909EB33FB92D552
:1000BF00C3EB9F20D5024002FB07DADC8BF08021D7
:1000CF00191919E78FF084F7097B03E5F0D7C7C437
:1000DF008FF084C4C7C445F0C48FF084D709DBEB1D
:1000EF0019E4FAFBC5F0F802015EE4C7FB19E4C797
:1000FF00F819E4C7F5F019E4CBC7FA0909097583B4
:07010F000802012602011D98
:10011600E58124FEF9C2D1E4F8F5F0FAFB758320F7
:10012600C3758204E733F719D582F909090909E885
:1001360033F8E5F033F5F0EA33FAEB33FBE89FE505
:10014600F09EEA9DEB9C400D07CBE89FC8E5F09E2C
:10015600C5F0EA9DCAD583C8E7FF19E7FE19E7FD92
:0C01660019E7FC30D1031201820201C431
:100172001201D3C380021819E637F6DAF90201C474
:0E018200C3E49FFFE49EFEE49DFDE49CFC228E
:10019000E58124FEF9C2D1EC30E705D2D11201820B
:1001A000191919E730E70FB2D10909097A04C3E434
:0C01B00097C719DAFA090909090200963C
:1001BC0074F9800674FA800274FCD083D082258195
:0701CC00F581C082C083220F
:10000300E5F06010C3EF33FFEE33FEED33FDEC3369
:05001300FCD5F0F02215
:0F01D300E5D054182407F8E58124FCF97A0422BA
:00000001FF
